:100000000C9469000C9491000C9491000C94910054
:100010000C9491000C9491000C9491000C9491001C
:100020000C9491000C9491000C9491000C94340168
:100030000C9491000C9491000C9491000C949100FC
:100040000C9474080C9491000C942C0B0C945E0B83
:100050000C9491000C9491000C9491000C949100DC
:100060000C9487040C94910084068A069406A206D8
:10007000A406AA06B406C206D406D60600000008E6
:10008000000201000003040700000000000000005F
:10009000010204081020408001020408102001021F
:1000A00004081020040404040404040402020202EC
:1000B00002020303030303030000000025002800DD
:1000C0002B0000000000240027002A00B600E903EE
:1000D0008E0B11241FBECFEFD8E0DEBFCDBF11E0E5
:1000E000A0E0B1E0E4E8FBE102C005900D92A4338A
:1000F000B107D9F722E0A4E3B1E001C01D92AB3E05
:10010000B207E1F710E0C2EDD0E004C02297FE0193
:100110000E948E0DCC3CD107C9F70E94D20B0C94E3
:10012000C00D0C94000026E040E855E260E070E06D
:100130008EE492E00E94CA0A46E450E060E070E07B
:1001400083E491E00E94EC0584E391E00E94720850
:1001500084E391E00E94A50784E391E00E94F80700
:1001600066E071E084E391E00C941F0CEF92FF9243
:100170000F931F938BE0E82EF12C0AE010E029E0AA
:1001800030E048E050E068EC70E083E491E00E94E9
:10019000B40580E491E00E94F00122E040E167E2D2
:1001A00084E391E01F910F91FF90EF900C947C07F6
:1001B000CF93DF938EE492E00E94000AEC01E0917D
:1001C0004E02F0914F020190F081E02D682F8EE4F5
:1001D00092E00995C037D105E1F41092040167E07F
:1001E00070E080E491E00E948A02809105018823FA
:1001F00019F061E470E002C067E870E080E491E02B
:100200000E94C3028091050191E089278093050136
:1002100028C0CB36D10559F4CFE5D0E06BE070E0D3
:1002200083E491E00E94F3062197C1F71AC0C33717
:10023000D105B9F484E391E00E94F8078EE492E0DE
:100240000E94E7091816190664F48EE492E00E94F1
:10025000000A4AE050E0BC0184E391E00E94CB0C2C
:10026000EDCFDF91CF9108951F920F920FB60F92AD
:1002700011242F933F934F935F936F937F938F93AB
:100280009F93AF93BF93EF93FF938091600187FF9C
:1002900005C010928500109284001AC02091600160
:1002A000332727FD309580915F0190E028173907AB
:1002B0007CF480916001992787FD9095FC01EE0FF9
:1002C000FF1FE80FF91FEF59FE4F808186FD15C013
:1002D000809160018F5F80936001209160013327DE
:1002E00027FD309580915F0190E028173907BCF415
:1002F000809160018C305CF112C08091600199277F
:1003000087FD9095FC01EE0FFF1FE80FF91FEF59D5
:10031000FE4F808160E08F730E94B109D9CF809138
:10032000840090918500049680349C4918F480E400
:100330009CE905C08091840090918500049690937B
:100340008900809388008FEF8093600138C02091EE
:1003500084003091850080916001992787FD9095F8
:10036000FC01EE0FFF1FE80FF91FEF59FE4F8181CF
:100370009281820F931F90938900809388008091CF
:100380006001992787FD9095FC01EE0FFF1FE80F94
:10039000F91FEF59FE4F808186FF11C080916001E7
:1003A000992787FD9095FC01EE0FFF1FE80FF91FBD
:1003B000EF59FE4F808161E08F730E94B109FF9178
:1003C000EF91BF91AF919F918F917F916F915F91CD
:1003D0004F913F912F910F900FBE0F901F90189546
:1003E00020915F012C30A0F431E0320F30935F0197
:1003F000FC012083822F90E0FC01EE0FFF1FE80F2D
:10040000F91FEF59FE4F88EB9BE09283818308959B
:100410002FEFFC0120830895DF92EF92FF920F935C
:100420001F93CF93DF93EC01D62E7A018901888147
:100430008C3008F066C061E08D2D0E9478098881BB
:10044000A82FB0E0FD01EE0FFF1FEA0FFB1FEF59D1
:10045000FE4F2D2D2F739081907C922B908360E224
:1004600072E06E197F0977FF02C06D5F7F4F75954F
:10047000679575956795698340E659E0401B510B78
:1004800057FF02C04D5F5F4F55954795559547956E
:100490004A836CE00E942B0D9CE0899FB0011124DF
:1004A00020E030E0A901460F571FFA01EE0FFF1FB1
:1004B000E40FF51FEF59FE4F908196FD16C02F5F98
:1004C0003F4F2C30310571F781110FC01092800021
:1004D00082E0809381001092850010928400B19A8E
:1004E00080916F00826080936F00888190E0FC01B2
:1004F000EE0FFF1FE80FF91FEF59FE4F8081806458
:1005000080838881DF91CF911F910F91FF90EF90B1
:10051000DF90089520E639E040E252E00C940C02AE
:10052000FC0180818C3070F5918128E830E0291B36
:10053000310997FD3395220F331F220F331F6217A6
:1005400073077CF0928128E532E0291B310997FD81
:100550003395220F331F220F331F621773070CF4DA
:100560009B0122503109220F331F4FB7F89490E0BE
:10057000FC01EE0FFF1FE80FF91FEF59FE4F32830A
:1005800021834FBF08954F925F926F927F92AF92F7
:10059000BF92CF92DF92EF92FF920F931F93CF9370
:1005A000DF93EC01603282E078070CF040C077FD09
:1005B00006C0653B71052CF064EB70E002C060E0A2
:1005C00070E0898128E830E0281B310987FD3395E8
:1005D000220F331F220F331F5901CC24B7FCC094C4
:1005E000DC2C882777FD8095982F2A8148E552E0FA
:1005F000421B510927FD5395440F551F440F551FAA
:100600002A01662457FC6094762C7F926F925F9249
:100610004F9214EBE12EF12C00E010E020E030E0EE
:10062000A9010E94D30C0F900F900F900F90CE0154
:10063000DF91CF911F910F91FF90EF90DF90CF90BE
:10064000BF90AF907F906F905F904F900C9490020E
:100650008091B50190E02091B601821B9109089527
:100660002091B6018091B501281750F4E22FF0E0F7
:10067000E954FE4F808190E02F5F2093B6010895EA
:100680008FEF9FEF0895E091B6018091B501E817D3
:1006900030F4F0E0E954FE4F808190E008958FEF50
:1006A0009FEF08950895CF92DF92EF92FF920F93FC
:1006B0001F93CF93DF937C01CB018A01209191019D
:1006C000222389F0EB016B01C40ED51ECC15DD058C
:1006D00069F06991D701ED91FC910190F081E02DD5
:1006E000C7010995F3CF642F0E945E04C801DF9112
:1006F000CF911F910F91FF90EF90DF90CF900895D1
:10070000CF93DF931F92CDB7DEB76983209191011C
:100710002223D1F020919201203240F021E030E0FC
:10072000FC013383228380E090E015C08091930127
:10073000E82FF0E0EC56FE4F998190838F5F809315
:1007400093018093920105C061E0CE0101960E9461
:100750005E0481E090E00F90DF91CF910895FC015D
:100760001382128248EE53E060E070E044835583C8
:100770006683778380E191E091838083089510926E
:10078000B6011092B50110929301109292010C944F
:10079000ED0381E0809391016093B4011092930185
:1007A0001092920108950F93062F21E0409192013B
:1007B00064E971E08091B4010E940B0410929301EE
:1007C00010929201109291010F91089561E00C94A2
:1007D000D30385E891E00C94AF031092440281E0CA
:1007E000809342021092410261E082E10E94B109CD
:1007F00061E083E10E94B109E9EBF0E080818E7F46
:10080000808380818D7F808388E48093B80085E435
:100810008093BC0008950F93413208F046C0909138
:1008200044029111FCCF92E0909344020093420263
:100830009FEF9093D70110921C0240931B02FB0183
:100840006DE172E0DB019A2F961B941718F49191D9
:100850009D93F9CF1092430290914302880F892B08
:100860008093430280914102813041F41092410211
:10087000809143028093BB0085EC01C085EE80939C
:10088000BC00222321F0809144028230E1F3809168
:10089000D7018F3F61F08091D701803251F0809174
:1008A000D701803341F483E007C081E005C080E0D8
:1008B00003C082E001C084E00F910895613298F492
:1008C00020914402243089F46093F901FC018BEFFC
:1008D00091E0DC012A2F281B261718F421912D9373
:1008E000F9CF80E0089581E0089582E0089585EDD4
:1008F0008093BC008091BC0084FDFCCF1092440228
:10090000089585EC8093BC001092440208951F92D4
:100910000F920FB60F9211242F933F934F935F9333
:100920006F937F938F939F93AF93BF93EF93FF93B7
:100930008091B900887F803609F49CC068F58832C0
:1009400009F45BC090F4803109F454C038F4882372
:1009500009F4F5C0883009F44DC0F5C0883109F4B8
:100960004CC0803209F45DC0EEC0803409F468C028
:1009700048F4803309F455C0883309F0E4C080930B
:10098000D701A8C0803509F44FC0883509F45DC08F
:10099000883409F0D8C0D5C0883909F4C6C0A8F495
:1009A000883709F467C038F4883609F463C08037A3
:1009B00009F460C0C8C0883809F4B7C0803909F4A8
:1009C0005FC0803809F0BFC05BC0803B09F485C0C0
:1009D00038F4803A09F466C0883A09F47EC0B3C09E
:1009E000803C09F4A6C0883C09F4A3C0883B09F404
:1009F00089C0A9C08091430210C090911C028091CF
:100A00001B02981770F5E0911C0281E08E0F809315
:100A10001C02F0E0E35EFD4F80818093BB0085EC1B
:100A200085C08093D7018DC0E0911C0281E08E0FBC
:100A300080931C028091BB00F0E0E35EFD4F808359
:100A400090911C0280911B026DC0E0911C0281E01C
:100A50008E0F80931C028091BB00F0E0E35EFD4F9F
:100A600080838091420281116CC081E080934102B9
:100A700084EA60C083E0809344021092D801CFCF13
:100A80008091D801803208F050C0E091D80181E017
:100A90008E0F8093D8018091BB00F0E0E752FE4FAB
:100AA0008083BDCF8091D801803230F4E091D801AD
:100AB000F0E0E752FE4F10820E9477046091D80167
:100AC00070E0E0913D02F0913E0289ED91E00995E0
:100AD0001092D8010E94810436C084E080934402C1
:100AE0001092FA011092F901E0913F02F091400258
:100AF00009958091F901811105C081E08093F90188
:100B00001092FB01E091FA0181E08E0F8093FA01CF
:100B1000F0E0E550FE4F80818093BB009091FA0198
:100B20008091F901981708F47ACF85E88093BC008A
:100B30000AC085EC8093BC001092440204C010925D
:100B4000D7010E947704FF91EF91BF91AF919F91E0
:100B50008F917F916F915F914F913F912F910F9066
:100B60000FBE0F901F901895EF92FF920F931F9357
:100B7000CF93DF93EC01842F1D861C861B821A8283
:100B800019821882188E198E1A8E1B8E79876887A3
:100B90004E875F87398B288B1B8B0A8BFD8AEC8AEB
:100BA00061E00E94780961E088890E94780961E02B
:100BB0008A890E94780961E08C890E9478091F8ADD
:100BC0001E8A84E090E09B878A87DF91CF911F91F6
:100BD0000F91FF90EF900895CF92DF92EF92FF92E6
:100BE000CF93DF93EC016A017B0128853985442787
:100BF00037FD4095542F60E077E883E993E00E9449
:100C00006D0DCA01B901A70196010E946D0D2C83DB
:100C10003D834E835F83DF91CF91FF90EF90DF9014
:100C2000CF9008950F931F93CF93DF93EC018B0127
:100C30008A859B850297F9F46130710571F02CF477
:100C400061157105C1F460E009C06230710559F0A9
:100C50006330710581F460E007C061E08E850E9419
:100C6000B10961E005C061E08E850E94B10960E0D4
:100C700088890E94B1098A859B850497B9F501305E
:100C80001105B1F04CF40115110581F561E08E8577
:100C90000E94B10960E011C002301105B9F00330C3
:100CA000110521F561E08E850E94B10960E013C055
:100CB00060E08E850E94B10961E088890E94B109D7
:100CC00061E08A890E94B10960E00DC060E08E8514
:100CD0000E94B10961E088890E94B10960E08A89B7
:100CE0000E94B10961E08C890E94B1098A859B85C7
:100CF000059709F073C00A30110508F06FC0F801BC
:100D0000EC5CFF4F0C948C0D60E08E850E94B10965
:100D100061E051C060E08E850E94B10961E0888980
:100D20000E94B10960E04BC060E08E850E94B1096D
:100D300061E088890E94B10960E08A890E94B10956
:100D400061E041C060E001C061E08E850E94B109B0
:100D500061E005C061E08E850E94B10960E088898C
:100D60000E94B10960E009C061E08E850E94B1096E
:100D700060E088890E94B10961E08A890E94B10916
:100D800061E00DC061E08E850E94B10960E0888954
:100D90000E94B10961E08A890E94B10960E08C89F2
:100DA0000E94B10960E013C061E001C060E08E857F
:100DB0000E94B10960E088890E94B10961E08A89D6
:100DC0000E94B10960E08C890E94B10961E08E89BE
:100DD000DF91CF911F910F910C94B109DF91CF91C9
:100DE0001F910F9108954F925F926F927F928F9211
:100DF0009F92AF92BF92CF92DF92EF92FF920F93AA
:100E00001F93CF93DF93EC01CB0177FF04C08827BA
:100E10009927861B970B6C01161617062CF481E098
:100E200090E09983888304C0672B11F0198218829F
:100E300004E010E08AE0E82EF12CC114D10409F49A
:100E40004AC00E94BE08888C998CAA8CBB8C2B014E
:100E50003C01481859086A087B088C809D80AE8048
:100E6000BF80481459046A047B0458F3688F798F53
:100E70008A8F9B8F288139818C859D852130310512
:100E800059F401969D878C872885398582179307A9
:100E900071F41D861C860BC0892B21F488859985E9
:100EA0009D878C878C859D8501979D878C8781E0A8
:100EB000C81AD1082A853B858C859D85253031054A
:100EC00011F4B70101C0B8010E94370DBC01CE0179
:100ED0000E941206B2CFDF91CF911F910F91FF9028
:100EE000EF90DF90CF90BF90AF909F908F907F90CA
:100EF0006F905F904F900895FC011382128280E200
:100F000091E09183808364834187228713860895CB
:100F10001F93CF93DF93EC01162F6C8185E891E04E
:100F20000E94C903E0918501F09186016B85612BD8
:100F30000190F081E02D85E891E0099585E891E048
:100F4000DF91CF911F910C94E60328E0FC012387E9
:100F500060E00C9488071F93CF93DF93EC01162F6A
:100F600064600E94880781E090E00E940909612F77
:100F70006B7FCE010E94880782E390E0DF91CF91E2
:100F80001F910C9409091F93CF93DF93EC01162F47
:100F90000E948807612FCE01DF91CF911F910C94A1
:100FA000AB07EF92FF921F93CF93DF931F92CDB7C2
:100FB000DEB77C01162F607F642B49830E94C30734
:100FC00080E1189FB00111244981642BC7010F9063
:100FD000DF91CF911F91FF90EF900C94C30741E0F8
:100FE0000E94D10781E090E0089540E00C94D10781
:100FF00061E00E94F50780ED97E00C94090962E03A
:101000000E94F50780ED97E00C940909FC016681C8
:10101000262F246026836C600C94F507CF93DF9312
:10102000EC01423018F08D8188608D83488722233F
:1010300029F0413019F48D8184608D8362E370E082
:1010400080E090E00E94E1086B85CE010E94880755
:1010500068EE73E080E090E00E94E10860E3CE017A
:101060000E94C30784E991E10E94090960E3CE016F
:101070000E94C30784E991E10E94090960E3CE015F
:101080000E94C30786E990E00E94090960E2CE0150
:101090000E94C3076D816062CE010E94F50784E063
:1010A0008E83CE010E940608CE010E94F80782E0DE
:1010B0008F8366E0CE010E94F507CE01DF91CF91CC
:1010C0000C94FF07CF93DF93EC0185E891E00E9439
:1010D000BF031D8220E04A856985CE01DF91CF9153
:1010E0000C940E080C9462081F920F920FB60F9288
:1010F00011242F933F938F939F93AF93BF9380912E
:10110000460290914702A0914802B0914902309165
:10111000450223E0230F2D3720F40196A11DB11DB8
:1011200005C026E8230F0296A11DB11D209345029C
:101130008093460290934702A0934802B0934902DD
:1011400080914A0290914B02A0914C02B0914D02C5
:101150000196A11DB11D80934A0290934B02A0936A
:101160004C02B0934D02BF91AF919F918F913F91EF
:101170002F910F900FBE0F901F9018953FB7F894C6
:1011800080914A0290914B02A0914C02B0914D0285
:1011900026B5A89B05C02F3F19F00196A11DB11DD2
:1011A0003FBF6627782F892F9A2F620F711D811DEF
:1011B000911D42E0660F771F881F991F4A95D1F74E
:1011C0000895CF92DF92EF92FF92CF93DF936B015E
:1011D0007C010E94BE08EB01C114D104E104F104BA
:1011E00089F00E941A0D0E94BE086C1B7D0B683EA0
:1011F000734090F381E0C81AD108E108F108C851A2
:10120000DC4FEACFDF91CF91FF90EF90DF90CF904E
:1012100008958230910538F0880F991F880F991F23
:1012200005970197F1F70895789484B5826084BD9D
:1012300084B5816084BD85B5826085BD85B58160DA
:1012400085BDEEE6F0E0808181608083E1E8F0E03A
:101250001082808182608083808181608083E0E869
:10126000F0E0808181608083E1EBF0E08081846048
:101270008083E0EBF0E0808181608083EAE7F0E04A
:1012800080818460808380818260808380818160AE
:1012900080838081806880831092C10008958330AC
:1012A00081F028F4813099F08230A1F008958730E0
:1012B000A9F08830B9F08430D1F4809180008F7D1E
:1012C00003C0809180008F7780938000089584B55B
:1012D0008F7702C084B58F7D84BD08958091B00062
:1012E0008F7703C08091B0008F7D8093B000089508
:1012F000CF93DF9390E0FC01E057FF4F2491FC0176
:10130000EC55FF4F8491882349F190E0880F991F95
:10131000FC01EE53FF4FA591B49188549F4FFC01FF
:10132000C591D4919FB7611108C0F8948C91209514
:1013300082238C93888182230AC0623051F4F8940E
:101340008C91322F309583238C938881822B8883D4
:1013500004C0F8948C91822B8C939FBFDF91CF9126
:1013600008950F931F93CF93DF931F92CDB7DEB7EE
:10137000282F30E0F901E458FF4F8491F901E0573C
:10138000FF4F1491F901EC55FF4F04910023C9F070
:10139000882321F069830E944F096981E02FF0E0E2
:1013A000EE0FFF1FE854FF4FA591B4919FB7F8943B
:1013B0008C91611103C01095812301C0812B8C9306
:1013C0009FBF0F90DF91CF911F910F910895FC0166
:1013D000818D228D90E0805C9F4F821B91098F73DD
:1013E00099270895FC01918D828D981731F0828D97
:1013F000E80FF11D858D90E008958FEF9FEF089520
:10140000FC01918D828D981761F0828DDF01A80F0C
:10141000B11D5D968C91928D9F5F9F73928F90E02E
:1014200008958FEF9FEF089584E89BE0892B49F0A2
:1014300080E090E0892B29F00E94840B81110C94AC
:1014400000000895FC01848DDF01A80FB11DA35A8F
:10145000BF4F2C91848D90E001968F739927848FD4
:10146000A689B7892C93A089B1898C9180648C93CB
:10147000938D848D981306C00288F389E02D8081B6
:101480008F7D80830895CF93DF93EC01888D88232F
:10149000C9F0EA89FB89808185FD05C0A889B989E1
:1014A0008C9186FD0FC00FB607FCF5CF808185FFBC
:1014B000F2CFA889B9898C9185FFEDCFCE010E942A
:1014C000220AE7CFDF91CF910895CF92DF92FF926A
:1014D0000F931F93CF93DF931F92CDB7DEB76C01AD
:1014E00081E0D60158968C9358975B969C915B97B8
:1014F0005C968C915C97981307C05096ED91FC9187
:101500005197808185FD2EC0F601038D10E00F5F9D
:101510001F4F0F731127F02EF601848DF81211C0A2
:101520000FB607FCF9CFD6015096ED91FC9151977B
:10153000808185FFF1CFC60169830E94220A6981FB
:10154000EBCF838DE80FF11DE35AFF4F6083D60187
:101550005B960C935B975296ED91FC91539780812B
:1015600080620CC0D6015696ED91FC91579760832E
:101570005096ED91FC91519780818064808381E049
:1015800090E00F90DF91CF911F910F91FF90DF902E
:10159000CF900895BF92CF92DF92EF92FF92CF93B8
:1015A000DF93EC016A017B01B22EE889F98982E0C0
:1015B0008083411581EE580761057105A1F060E057
:1015C00079E08DE390E0A70196010E944B0D215038
:1015D00031094109510956954795379527952115A8
:1015E00080E1380798F0E889F989108260E874E8AA
:1015F0008EE190E0A70196010E944B0D2150310928
:10160000410951095695479537952795EC85FD85F4
:101610003083EE85FF852083188EEC89FD89B082AA
:10162000EA89FB89808180618083EA89FB898081E6
:1016300088608083EA89FB89808180688083EA8969
:10164000FB8980818F7D8083DF91CF91FF90EF9028
:10165000DF90CF90BF9008951F920F920FB60F9218
:1016600011242F938F939F93EF93FF93E0915E024A
:10167000F0915F028081E0916402F091650282FD49
:1016800012C09081809167028F5F8F7320916802F2
:10169000821751F0E0916702F0E0E25BFD4F958F19
:1016A0008093670201C08081FF91EF919F918F919C
:1016B0002F910F900FBE0F901F9018951F920F92B1
:1016C0000FB60F9211242F933F934F935F936F9315
:1016D0007F938F939F93AF93BF93EF93FF938EE48A
:1016E00092E00E94220AFF91EF91BF91AF919F91EA
:1016F0008F917F916F915F914F913F912F910F90BB
:101700000FBE0F901F9018958EE492E00E94E7099B
:1017100021E0892B09F420E0822F089510925102D4
:101720001092500288EE93E0A0E0B0E08093520265
:1017300090935302A0935402B093550288E291E033
:1017400090934F0280934E0285EC90E090935B0261
:1017500080935A0284EC90E090935D0280935C0247
:1017600080EC90E090935F0280935E0281EC90E0C9
:10177000909361028093600282EC90E09093630208
:101780008093620286EC90E09093650280936402FD
:1017900010926702109268021092690210926A0217
:1017A000089508950E9414090E94D10B0E9493008D
:1017B000C4E1DAE00E94D8002097E1F30E94140A05
:1017C000F9CFCF92DF92EF92FF920F931F93CF93B7
:1017D000DF936C017A01EB01E60EF71E00E010E0EA
:1017E000CE15DF0561F06991D601ED91FC91019074
:1017F000F081E02DC6010995080F191FF1CFC8012E
:10180000DF91CF911F910F91FF90EF90DF90CF90DC
:1018100008956115710581F0DB010D900020E9F755
:10182000AD0141505109461B570BDC01ED91FC9174
:101830000280F381E02D099480E090E008950C94FB
:10184000090CDC01ED91FC910190F081E02D0994EF
:101850008F929F92AF92BF92CF92DF92EF92FF92C0
:101860000F931F93CF93DF93CDB7DEB7A1970FB63A
:10187000F894DEBF0FBECDBF7C01C42EE52FCB0197
:10188000D22E19A221E02D1510F02AE0D22E8E01C1
:101890000F5D1F4F8D2C912CA12CB12C6C2D7E2F08
:1018A000A50194010E944B0D8C2DD29E801911240C
:1018B000015011098A3014F4805D01C0895CF8017F
:1018C0008083211531054105510521F0C22EE32FFA
:1018D000CA01E4CFB801C7010E94090CA1960FB656
:1018E000F894DEBF0FBECDBFDF91CF911F910F9156
:1018F000FF90EF90DF90CF90BF90AF909F908F9030
:101900000895CF92DF92EF92FF920F931F93CF93A0
:10191000DF93EC016A017B012115310579F4E8813F
:10192000F9810190F081E02D642FDF91CF911F911B
:101930000F91FF90EF90DF90CF9009942A303105FE
:10194000E9F477FF1AC06DE20E94210C8C01442754
:101950005527BA014C195D096E097F092AE0CE01AD
:101960000E94280C800F911FDF91CF911F910F9142
:10197000FF90EF90DF90CF9008952AE0B701A60185
:10198000CE01DF91CF911F910F91FF90EF90DF90EB
:10199000CF900C94280C9A01AB01662757FD6095F7
:1019A000762F0C94810C4F925F926F927F92AF9240
:1019B000BF92CF92DF92EF92FF920F931F93CF933C
:1019C000DF93CDB7DEB729013A01621B730B840B9D
:1019D000950B29893A894B895C892A193B094C095D
:1019E0005D09298B3A8B4B8B5C8B9B01AC01698920
:1019F0007A898B899C890E941B0DE418F5080609D9
:101A00001709A80197010E946D0D2A0D3B1D4C1D61
:101A10005D1DCA01B901DF91CF911F910F91FF9018
:101A2000EF90DF90CF90BF90AF907F906F905F90DE
:101A30004F9008950895DB018F939F930E94920D1C
:101A4000BF91AF91A29F800D911DA39F900DB29F5A
:101A5000900D11240895991B79E004C0991F9617E1
:101A600008F0961B881F7A95C9F78095089597FB13
:101A7000072E16F4009407D077FD09D00E949D0D23
:101A800007FC05D03EF4909581959F4F0895709581
:101A900061957F4F0895A1E21A2EAA1BBB1BFD0181
:101AA0000DC0AA1FBB1FEE1FFF1FA217B307E4073D
:101AB000F50720F0A21BB30BE40BF50B661F771F95
:101AC000881F991F1A9469F7609570958095909575
:101AD0009B01AC01BD01CF010895052E97FB1EF4BB
:101AE00000940E94840D57FD07D00E944B0D07FC07
:101AF00003D04EF40C94840D50954095309521956B
:101B00003F4F4F4F5F4F0895909580957095619529
:101B10007F4F8F4F9F4F0895EE0FFF1F0590F49159
:101B2000E02D09940E94B10DA59F900DB49F900DDA
:101B3000A49F800D911D11240895AA1BBB1B51E188
:101B400007C0AA1FBB1FA617B70710F0A61BB70B2D
:101B5000881F991F5A95A9F780959095BC01CD01D2
:101B60000895A29FB001B39FC001A39F700D811D76
:101B70001124911DB29F700D811D1124911D089596
:041B8000F894FFCF07
:101B8400010000000101444954544F0000000000CA
:101B9400800353032803300343035203000000006F
:101BA400EF07E10B00000000650AE10BE709000AFA
:041BB400F209430AE5
:00000001FF
